:020000040800F2
:10000000A814002071020008A11200089103000842
:100010009D1200083B0A000817210008000000009C
:10002000000000000000000000000000E1140008D3
:100030000511000800000000DF020008D1150008CB
:100040008B0200088B0200088B0200088B0200085C
:100050008B0200088B0200088B0200088B0200084C
:100060008B0200088B0200088B0200083D0D00087F
:100070008B0200088B0200088B0200088B0200082C
:100080008B0200088B0200088B0200088B0200081C
:100090008B0200088B0200088B0200088B0200080C
:1000A0008B0200088B0200088B0200088B020008FC
:1000B0008B020008091700088B0200088B02000859
:1000C0008B0200088B0200088B0200088B020008DC
:1000D0008B020008A91A00088B020008811C000886
:1000E0008B0200088B0200088B0200088B020008BC
:1000F0008B0200088B0200088B0200088B020008AC
:100100008B0200088B0200088B0200088B0200089B
:100110000D180008191A00088B0200088B0200084D
:100120008B0200088B0200088B0200088B0200087B
:100130008B0200088B0200088B0200088B0200086B
:100140008B0200088B0200088B0200088B0200085B
:100150008B0200088B0200088B020008F51C0008C7
:100160008B0200088B0200088B0200088B0200083B
:100170008B0200088B0200088B0200088B0200082B
:100180008B0200088B02000800F002F800F061F812
:100190000AA090E8000C82448344AAF10107DA45E2
:1001A00001D100F056F8AFF2090EBAE80F0013F0D3
:1001B000010F18BFFB1A43F00103184798B4000061
:1001C000B8B400000A444FF0000C10F8013B13F0E3
:1001D000070408BF10F8014B1D1108BF10F8015BA0
:1001E000641E05D010F8016B641E01F8016BF9D193
:1001F00013F0080F1EBF10F8014BAD1C0C1B09D1EA
:100200006D1E58BF01F801CBFAD505E014F8016B5B
:1002100001F8016B6D1EF9D59142D6D370470000ED
:100220000023002400250026103A28BF78C1FBD8FF
:10023000520728BF30C148BF0B607047642900F0E7
:100240001181002070471FB50AF003FA1FBD10B5D9
:1002500010BD00F0ABFB1146FFF7F5FF00F0D4FB3B
:1002600000F0C9FB03B4FFF7F2FF03BC02F0CFFFBD
:100270000948804709480047FEE7FEE7FEE7FEE73A
:10028000FEE7FEE7FEE7FEE7FEE7FEE70448054976
:10029000054A064B70470000A116000889010008B6
:1002A000A80E0020A8140020A8100020A8100020EC
:1002B000EFF3108072B6704780F310887047424A9F
:1002C0001368012B04D04FF0010313603F4A106004
:1002D0003F4A11603F484FF0805101607047EFF393
:1002E000108272B63848016851B34FF000010160C6
:1002F0003648016891B1EFF309811EF0100F08BF75
:1003000021ED108B21E9F00F4FF000041EF0100FCB
:1003100008BF012441F8044D006801602C490968B8
:10032000096808C9B1E8F00F002B18BFB1EC108BB9
:1003300081F309884EF0100E002B18BF2EF0100E1E
:1003400082F310884EF0040E704721490860EFF3E5
:10035000148222F0040282F314881C494FF000003A
:10036000086019494FF0010008601B481B49D0F88C
:10037000002041EA0201016016484FF080510160FF
:1003800017480068006880F3088861B662B6704755
:100390001EF0040F0CBFEFF30880EFF3098020E993
:1003A000F00F40F804ED40F804ED1EF0040F0CBF10
:1003B00080F3088880F3098800B506F02BFF5DF80C
:1003C00004EB4EF0040E7047D8010020D00100204D
:1003D000D401002004ED00E020ED00E00000FFFF6C
:1003E00008ED00E00FB4044910B503AA029800F02C
:1003F000ABFA10BC5DF814FB440000202DE9F0417D
:100400000E460446002020622046E168884730B34B
:10041000252805D0D4E901219047206A401CF2E745
:10042000E168204600278847050018D0A5F1410063
:10043000192802D820354FF4006732462946204655
:100440002760FFF7FBFE40B1012804D0F61D26F01F
:1004500007060836D8E7361DD6E72846DAE7206AC9
:10046000BDE8F0812DE9F0410646002410687529A9
:10047000314616A510D0AFF30080002802DA4042C2
:1004800013A507E031688A0701D512A502E04907E4
:1004900004D511A5012401E0AFF3008000210A2258
:1004A00006F1240709E0B0FBF2FCB0FBF2F302FB1B
:1004B0001C00303078541846491C0028F3D12346DC
:1004C0002A463046BDE8F04100F0E5B900000000E2
:1004D0002D0000002B000000200000002DE9F0415D
:1004E00098461746044602FB01F609B100250AE0CA
:1004F0001046BDE8F08114F8010B414604F0B4FC4D
:10050000401CF6D06D1CB542F5DB3846F1E740EAF9
:10051000010310B59B070FD1042A0DD310C808C9D9
:10052000121F9C42F8D020BA19BA884201D9012082
:1005300010BD4FF0FF3010BD1AB1D30703D0521CCD
:1005400007E0002010BD10F8013B11F8014B1B1B08
:1005500007D110F8013B11F8014B1B1B01D1921E72
:10056000F1D1184610BD40EA0103024630B59B07A1
:1005700010D14FF0013400E008C208C91D1B9D4393
:1005800015EAC41FF8D013F0FF0102F8011B0DD0CB
:100590001B0AF8E711F8013B002B02F8013B05D0DC
:1005A00011F8013B002B02F8013BF3D130BD10B52F
:1005B000431C02E010F8011B71B18107FAD14FF022
:1005C000013202C88C1A8C4314EAC211F9D0C01A45
:1005D0000A0603D0C01E10BDC01A10BD0A0401D007
:1005E000801E10BD0902FCD0401E10BD40EA010370
:1005F00070B59B072ED14FF00136042A2AD308C8C4
:1006000010C99D1B9D43121F15EAC61517D0D8B2FD
:10061000E1B2401A50EA056110D198B2A1B2401A75
:1006200050EA05410AD123F07F4024F07F41401A6F
:1006300050EA052102D1180EA0EB146070BDA34250
:10064000DBD018BA21BA884201D9012070BD4FF021
:10065000FF3070BD0AB9002070BD10F8013B11F8E1
:10066000014B63B1A3420AD1521E08D010F8013BDE
:1006700011F8014B1BB1A34201D1521EEDD1181B41
:1006800070BD421E12F8013F002BFBD111F8013B57
:10069000002B02F8013BF9D17047032A40F2308069
:1006A00010F0030C00F0158011F8013BBCF1020FB3
:1006B000624498BF11F801CB00F8013B38BF11F834
:1006C000013BA2F1040298BF00F801CB38BF00F84B
:1006D000013B11F0030300F02580083AC0F00880C8
:1006E00051F8043B083A51F804CBA0E80810F5E7AC
:1006F000121D5CBF51F8043B40F8043BAFF300808F
:10070000D20724BF11F8013B11F801CB48BF11F803
:10071000012B24BF00F8013B00F801CB48BF00F8D3
:10072000012B704710B5203AC0F00B80B1E818508B
:10073000203AA0E81850B1E81850A0E81850BFF4CB
:10074000F5AF5FEA027C24BFB1E81850A0E818506A
:1007500044BF18C918C0BDE810405FEA827C24BFBE
:1007600051F8043B40F8043B08BF7047D20728BF4C
:1007700031F8023B48BF11F8012B28BF20F8023B9B
:1007800048BF00F8012B70474FF000020429C0F069
:10079000128010F0030C00F01B80CCF1040CBCF1B3
:1007A000020F18BF00F8012BA8BF20F8022BA1EB05
:1007B0000C0100F00DB85FEAC17C24BF00F8012BEA
:1007C00000F8012B48BF00F8012B70474FF00002E2
:1007D00000B5134694469646203922BFA0E80C5037
:1007E000A0E80C50B1F12001BFF4F7AF090728BF12
:1007F000A0E80C5048BF0CC05DF804EB890028BF8E
:1008000040F8042B08BF704748BF20F8022B11F0B6
:10081000804F18BF00F8012B704710B5044610F048
:10082000030F08BF11F0030F40F015804FF0013E99
:10083000121FC0F20E8051F8043BA3EB0E0C2CEA01
:10084000030C1CEACE1C08BF40F8043BF0D0A1F119
:10085000040102F10402521E08DB11F8013B002BD7
:1008600000F8013BF7D11146FFF78EFF204610BD7F
:10087000704770477047000000487047440E0020E2
:1008800010B5FFF7F9FF006810BD10B50446FFF77B
:10089000F3FF046010BD2DE9F0470D4699469246DE
:1008A000044600F124080168880604D5E06921F0B7
:1008B0001001216000E00120A84201DD471B00E09B
:1008C0000027A1697A1902EB0900081AA0612078B3
:1008D000C00602D42046AFF30080002608E0D4E929
:1008E00001211AF806009047206A401C761C2062FD
:1008F0004E45F4DB2078C0060AD52046AFF30080D1
:1009000006E0D4E9012130209047206A401C206293
:10091000381EA7F10107F4DC07E0D4E9012118F83B
:1009200005009047206A401C2062281EA5F10105A1
:10093000F3DC2046AFF300802078000602D50220C9
:10094000BDE8F0870120FBE7074B70B50D467B44FF
:1009500000F015F80446284600F024F810B14FF0D6
:10096000FF3070BD204670BD17450000004870473D
:10097000440E002001694A1C02610878704700B5E6
:100980008FB0CDE901310021059105497944CDE9C8
:10099000031011466846FFF731FD0FB000BD00009F
:1009A000E5FFFFFF007B00F0800070477546FFF712
:1009B000DDFFAE4605006946534620F00700854638
:1009C00018B020B5FFF762FCBDE820404FF00006EC
:1009D0004FF000074FF000084FF0000B21F0070127
:1009E000AC46ACE8C009ACE8C009ACE8C009ACE86A
:1009F000C0098D46704710B50446AFF3008020460D
:100A0000BDE81040FFF72EBC10B508F012FE002024
:100A100010BD10B501F0D0F84FF4E13000F0DEFB6E
:100A200000F042FF06F0B2F905F098FE00F039FC44
:100A300006F0B8F906F0BAF910BD00BFFEE70000F5
:100A40001D490A780978491C1B4B19701B498854A9
:100A50000978552903D000211A46117070471649AC
:100A600009780B2900DAF9E714494978512904D0AB
:100A700052290AD0532918D10FE011490F4A921C6C
:100A800013680B6052684A600FE00E490B4A921CD3
:100A900013680B6052684A6007E00B49074A921CD2
:100AA00013680B6052684A6000BF00BF0021024A11
:100AB000117000BFD2E7000084000020CB040020AA
:100AC0004C000020540000205C00002000B587B0DE
:100AD0000121402000F040FC0121880500F03CFC91
:100AE0000121202000F068FC082209213F4800F085
:100AF00052FB08220E213D4800F04DFB4FF484408C
:100B0000059002208DF818008DF8190000208DF84E
:100B10001A0001208DF81B0005A9344800F0F3FAF3
:100B2000334801F0B1F901224021314801F0A2F926
:100B3000304801900020ADF80800ADF80A00ADF88B
:100B40000C00ADF810000C20ADF80E0001A92848EB
:100B500001F06EFA47208DF8000002208DF80100A8
:100B60008DF8020001208DF80300684600F0AEFB0E
:100B7000012240F224411E4801F035FA01211C48AF
:100B800001F06CF91C4800F08BF900BF1A4800F026
:100B900033FA0028FAD14FF0206018490860144851
:100BA000001D4860164888600020C8601120086158
:100BB000002048614FF4806088610020C8610862AD
:100BC00048624FF4403088620020C862086348637E
:100BD0008863094800F06AFA0121074800F054F9D7
:100BE0000121034801F03AF907B000BD00180240A6
:100BF0000014014000093D0028640240C80500209F
:100C00000406002000B587B00121084600F0A4FBCF
:100C10000121880500F0A0FB0121102000F0CCFB91
:100C2000072209213F4800F0B6FA07220A213D4871
:100C300000F0B1FA4FF4C060059002208DF8180062
:100C40008DF8190000208DF81A0001208DF81B0086
:100C500005A9344800F057FA334801F015F901228C
:100C60004021314801F006F9304801900020ADF8EC
:100C70000800ADF80A00ADF80C00ADF810000C202B
:100C8000ADF80E0001A9284801F0D2F925208DF811
:100C9000000003208DF801008DF8020001208DF87E
:100CA0000300684600F012FB012240F224411E4876
:100CB00001F099F901211C4801F0D0F81C4800F01E
:100CC000EFF800BF1A4800F097F90028FAD14FF06A
:100CD0000060184908601448001D48601648886084
:100CE0000020C86011200861002048614FF4806036
:100CF00088610020C861086248624FF44030886211
:100D00000020C862086348638863094800F0CEF990
:100D10000121074800F0B8F80121034801F09EF8CE
:100D200007B000BD000002400010014000093D0076
:100D300040640240C80500201406002010B506F0EB
:100D4000A7FB3249324800F061F900285AD03149F6
:100D50002F4800F065F82D492D4800F07BF806F08B
:100D600015F82D4800782C49497840EA0120C0F355
:100D70000A002A49088028484078C0102649897806
:100D800040EA4110C0F30A00244948802248807894
:100D900080112149C97840EA81001F49097940EA58
:100DA0008120C0F30A001D4988801B48007940104B
:100DB0001949497940EAC110C0F30A001749C880AF
:100DC0001548407900118008087213484079C0F333
:100DD0000110487208460088A0F5806000B20880C3
:100DE00008464088A0F5806000B2488008468088A8
:100DF000A0F5806000B288800846C088A0F58060B9
:100E000000B2C88006F06EFB10BD0000208000100C
:100E100010600240200000101E080020140800206E
:100E20000246094B9A4201D2084801E006481038B0
:100E300001F000531BB1064B0B40C36002E0044BB2
:100E40000B40836070470000106402400060024065
:100E50007D0F7D0F0246094B9A4201D2084801E0FE
:100E60000648103801F000531BB1064B0B40C3601D
:100E700002E0044B0B4083607047000010640240A6
:100E8000006002407D0F7D0F21B1026842F0010237
:100E9000026003E0026822F0010202607047000075
:100EA000016821F001010160002101604160816061
:100EB000C1600161212141614A49884204D13D213B
:100EC000484A103A91608CE046491831884205D171
:100ED0004FF47461434A103A916082E041493031E5
:100EE000884205D14FF474113E4A103A916078E07F
:100EF0003C494831884205D14FF07461394A103A73
:100F000091606EE037496031884204D13649354AF4
:100F1000103AD16065E033497831884204D13349D1
:100F2000304A103AD1605CE02E499031884204D1B9
:100F30002F492C4A103AD16053E02A49A8318842FF
:100F400005D14FF03D51274A103AD16049E0294977
:100F5000884204D13D21274A083A116041E02549E1
:100F60001831884205D14FF47461224A083A116061
:100F700037E020493031884205D14FF474111D4AC1
:100F8000083A11602DE01B494831884205D14FF0E5
:100F90007461184A083A116023E0164960318842AA
:100FA00004D11149134A121F11601AE01149783116
:100FB000884204D10D490F4A121F116011E00D49FA
:100FC0009031884204D10A490A4A121F116008E090
:100FD0000849A831884204D14FF03D51054A121FFB
:100FE00011607047106002403D000020400F00205B
:100FF00000003D2010640240014600200A6802F013
:1010000001020AB1012000E00020704770B50246DD
:10101000002000240025124EB24201D2114B01E003
:101020000F4B103B104E0E4036B11E2606EAD1245F
:10103000166806EA040502E0566906F0800501F02C
:1010400000560EB15C6800E01C68084E344004EAAB
:10105000010616B10DB1012000E0002070BD0000B6
:1010600010640240006002403C0F3C0F7D0F7D0F7A
:1010700010B501F080034BB122B1436943F0800306
:10108000436103E0436923F08003436180290BD06F
:101090002AB1036801F01E042343036004E00368DF
:1010A00001F01E04A343036010BD000010B5002230
:1010B0000268134B1A40CC680B6823434C692343E6
:1010C0008C692343CC6923430C6A23434C6A234332
:1010D0008C6A23434C6B23438C6B23431A4302607B
:1010E000426922F00702D1E90B3423431A434261DB
:1010F0000B6943604B6883608B68C36010BD000060
:101100003F801CF07047F0B50A4600210023002400
:1011100000BF3DE0012505FA01F3156805EA030467
:101120009C4234D105684F000326BE40B54305609C
:1011300015794E00B5400668354305601579012DD7
:1011400002D01579022D16D185684F000326BE40C6
:10115000B543856055794E00B54086683543856056
:10116000456801268E40B5434560456896798E40B6
:10117000B6B235434560C5684F000326BE40B5434F
:10118000C560D5794E00B540C6683543C560491C79
:101190001029BFD3F0BDF0B5002300244D07ED0E9C
:1011A00002FA05F3CE1000F1200555F826504E073F
:1011B000F70E0F26BE40B543CF1000F1200646F8CB
:1011C0002750CE1000F1200555F8265045EA0304BB
:1011D000CE1000F1200545F82640F0BD10B588B0CE
:1011E00004460121042000F0B7F80121C80400F0F2
:1011F000C3F808220A212748FFF7CDFF08220B2158
:101200002448FFF7C8FF4FF44060069002208DF895
:101210001C008DF81D0000208DF81E0001208DF8A7
:101220001F0006A91B48FFF76EFF1B4800F02CFEAD
:1012300002940020ADF80C00ADF80E00ADF81000DF
:10124000ADF814000C20ADF8120002A9124800F00D
:10125000EFFE012240F225510F4800F0C4FE0121AB
:101260000D4800F0FBFD012240F225510A4800F034
:10127000BAFE34208DF8040002208DF805008DF8A8
:10128000060001208DF8070001A800F01FF808B043
:1012900010BD000000080240004C004000BFFEE707
:1012A000704708B54FF4A06000F04CF827208DF887
:1012B000000000208DF8010001208DF802008DF85B
:1012C0000300684600F002F808BD000070B5002178
:1012D00000230F22C4781CB3174C246804F4E06484
:1012E000C4F5E064C4F30721C1F10404E3B20A4188
:1012F00044789C40E1B28478144021430C07210ECD
:101300000E4C05786155047804F01F050124AC40AB
:1013100005786D11AD0005F1E025C5F8004109E043
:10132000047804F01F050124AC40054D06787611C1
:1013300045F8264070BD00000CED00E000E400E040
:1013400080E100E002490143024A11607047000059
:101350000000FA050CED00E029B1064A12680243CC
:10136000044B1A6004E0034A12688243014B1A607E
:10137000704700003038024029B1064A1268024323
:10138000044B1A6004E0034A12688243014B1A605E
:10139000704700004038024029B1064A12680243F3
:1013A000044B1A6004E0034A12688243014B1A603E
:1013B000704700002038024029B1064A12680243F3
:1013C000044B1A6004E0034A12688243014B1A601E
:1013D000704700004438024029B1064A12680243AF
:1013E000044B1A6004E0034A12688243014B1A60FE
:1013F0007047000024380240F0B50021002200248C
:10140000022500260223324F3F6807F00C0121B16C
:10141000042905D0082937D105E02E4F076036E0B2
:101420002D4F076033E02A4F3F1F3F68C7F38056B8
:10143000274F3F1F3F6807F03F036EB1264FB7FBB2
:10144000F3F7DFF88CC0ACF1040CDCF800C0CCF38F
:10145000881C07FB0CF40CE01E4FB7FBF3F7DFF81A
:1014600070C0ACF1040CDCF800C0CCF3881C07FBA6
:101470000CF4174F3F1F3F68C7F301477F1C7D00E7
:10148000B4FBF5F7076002E0124F076000BF00BF32
:101490000F4F3F6807F0F0010909104F7A5C0768A9
:1014A000D74047600A4F3F6807F4E051890A0B4F65
:1014B0007A5C4768D7408760054F3F6807F4604112
:1014C000490B064F7A5C4768D740C760F0BD000003
:1014D000083802400024F40000127A00B000002016
:1014E000704700000CB5002001900090344800685F
:1014F00040F480303249086000BF3148006800F491
:10150000003000900198401C0190009818B9019893
:10151000B0F5A04FF1D12A48006800F4003010B1B6
:101520000120009001E0002000900098012846D1A1
:1015300023484030006840F0805021494031086025
:101540002048006840F440401E4908601C480830AC
:1015500000681B49083108600846006840F40040F4
:1015600008600846006840F4A05008601648091F4B
:101570000860081F006840F08070091F086000BF05
:101580000F48006800F000700028F9D040F20570A4
:101590000E4908600A480830006820F00300084936
:1015A000083108600846006840F00200086000BF8B
:1015B00003480830006800F00C000828F8D10CBD82
:1015C000003802400070004008544007003C0240D0
:1015D00010B505F05DFF07F0B3FB05F083FF10BD0C
:1015E00070B500200022022300240221274D2D681F
:1015F00005F00C0020B1042806D0082834D107E0FB
:10160000234D244E356033E0234D224E35602FE0CC
:101610001E4D2D1F2D68C5F380541C4D2D1F2D68A8
:1016200005F03F0154B11C4DB5FBF1F5174E361FC7
:101630003668C6F3881605FB06F209E0144DB5FBC3
:10164000F1F5124E361F3668C6F3881605FB06F212
:101650000E4D2D1F2D68C5F301456D1C6B00B2FBAF
:10166000F3F50C4E356003E0094D0A4E356000BFBE
:1016700000BF064D2D68C5F30315084E705D054D7E
:101680002D68C540034E356070BD0000083802402B
:101690000024F4009C00002000127A00A00000202A
:1016A00010B51548006840F47000134908601348ED
:1016B000006840F001001149086000200F4908311E
:1016C00008600E4800680E4908400C4908600D4843
:1016D000091D0860081F006820F48020091F0860A9
:1016E000002006490C310860FFF7FCFE4FF0006057
:1016F00001498039086010BD88ED00E000380240E3
:10170000FFFFF6FE1030002410B52C48007800F0E2
:10171000800000284CD10121294800F05BF8D0B1AD
:101720002648007800F04000A8B12448007800F076
:101730003F003F280AD12148007840F080001F492F
:1017400008704FF6FF701F49088004E01B480078BE
:10175000401C1A4908700221194800F03BF838B3C0
:101760001648007800F0400078B11448007840F046
:10177000800012490870124800F029F811490880C9
:1017800000210F4800F037F812E000200B490870E4
:101790000C49088000210A4800F036F80748007814
:1017A00040F04000054908700221054800F023F888
:1017B0000321034800F008F810BD00009400002049
:1017C0000004004096000020CA4302827047014690
:1017D000486B704730B50246002000230024158A6C
:1017E00005EA0103958905EA010413B10CB1012052
:1017F00000E0002030BD0A460021018C4FF6FD7349
:1018000019401143018470474162704710B505F0DB
:101810003FFE40F227711F4800F0BBFBE0B11E48BD
:1018200002780078401C1C4B18701C48815C1948D9
:1018300000F06DFC40F22771164800F000FB1648DE
:1018400000781749097888421CD1002240F227719C
:10185000104800F0C8FB15E040F225510D4800F09B
:1018600098FB78B10F480068401C0E490860094990
:10187000091D0988C8B2FFF7E3F840F22551054871
:1018800000F0DDFA4FF45871024800F0D8FA05F084
:1018900029FE10BD004C00407D000020CB0300203D
:1018A0007E0000208000002000B597B001210C20B0
:1018B000FFF752FD01210805FFF75EFD01214805F4
:1018C000FFF74AFD08220C214D48FFF764FC08226F
:1018D00002214C48FFF75FFC4FF480501590022026
:1018E0008DF858008DF8590000208DF85A0001201D
:1018F0008DF85B0015A94248FFF705FC0420159000
:1019000002208DF858008DF8590000208DF85A00FB
:1019100001208DF85B0015A93A48FFF7F4FB3A481F
:1019200000F0B2FA394811900020ADF84800ADF847
:101930004A00ADF84C00ADF850000C20ADF84E0058
:1019400011A9314800F074FB35208DF840000020CB
:101950008DF8410001208DF842008DF8430010A859
:10196000FFF7B4FC012240F22551274800F03BFB71
:101970000121254800F072FA01224021224800F09E
:1019800079FA2348FFF78CFA4FF0006001901E4867
:10199000001D02901F480390002004901220059023
:1019A000002006904FF48060079000200890099076
:1019B0004FF480700A904FF440300B9000200C9050
:1019C0000D900E900F9001A91148FFF76FFB0121B8
:1019D0000F48FFF759FA012210210D48FFF748FB85
:1019E0000B208DF8400001208DF841008DF8420059
:1019F0008DF8430010A8FFF769FC17B000BD000088
:101A000000080240000C024000500040A086010087
:101A1000106002401E08002010B505F039FD40F2AC
:101A200025511E4800F0B5FA10B31C4800F06AFBBF
:101A3000C4B21B48008800F40040C8B918480088A8
:101A400000F4804060B10A2C03D0002014490880C3
:101A500020E01348008840F400401149088019E054
:101A60000D2C06D10E48008840F480400C490880B7
:101A700010E00B480088C0F30D000A490C540848D8
:101A80000088401C0649088008460088C72801DDF8
:101A90000020088005F026FD10BD00000050004029
:101AA000980000203008002010B505F0F1FC40F24D
:101AB00024413B4800F06DFA00286DD040F22441EB
:101AC000374800F0BCF900213648FFF7DDF934480B
:101AD0000488848834493348FFF7A2F900BF3148AD
:101AE000FFF78AFA0028FAD10E22304901F036FCBD
:101AF0002E49C98988424DD12C48807800F00F00CA
:101B000030B101280ED0042817D005282BD11FE0B2
:101B1000002004E02549095C254A1154401C102886
:101B2000F8DB20E0002005E020490A5C2049103164
:101B30000A54401C1028F7DB15E0002005E01B4983
:101B40000A5C1B4940310A54401C1028F7DB0AE0AC
:101B5000002005E015490A5C154950310A54401C23
:101B60001028F7DB00BF00BF1248006890B910488A
:101B7000D0F8070070B1002003F072FB012003F0E1
:101B80006FFB042003F06CFB052003F069FB0120D0
:101B90000849086005F00AF905F0A4FC10BD000032
:101BA00000100140406402403D0000201406002067
:101BB000240600208C00002000B587B010222849A0
:101BC000284806F025F900231A4627A1294806F0DF
:101BD000C5FA01210F20FFF7BFFB01218804FFF7A1
:101BE000CBFB072208212448FFF7D5FA0722092159
:101BF0002148FFF7D0FA4FF44070059002208DF88D
:101C000018008DF8190000208DF81A0001208DF8B9
:101C10001B0005A91848FFF776FA184800F034F9B8
:101C20004FF4E13001900020ADF80800ADF80A0053
:101C3000ADF80C00ADF810000C20ADF80E0001A9B5
:101C40000E4800F0F5F9012240F225510B4800F052
:101C5000CAF90121094800F001F907B000BD0000F0
:101C600090020020A00200207368656C6C5F72789F
:101C700000000000AC020020000C024000480040C0
:101C800070B54FF0FF3405F003FC40F225511648C3
:101C900000F07FF920B32021134800F06DF9F8B16E
:101CA00019E04FF0FF3440F225510F4800F071F970
:101CB00050B10D4800F026FA04460B4800F022FA15
:101CC000C5B2284603F0DAFA601C00B904E0E1B2BC
:101CD000064806F0D5F8E4E700BF054806F074FAB8
:101CE00005F000FC70BD000000480040A00200208C
:101CF000AC02002010B505F0CBFB40F22441454872
:101D000000F047F900287DD040F22441414800F01E
:101D100096F800214048FFF7B7F83E480488001DB8
:101D200004883E493C48FFF77BF800BF3A48FFF77C
:101D300063F90028FAD10E22394901F00FFB384926
:101D4000C989884262D13648807800F00F000228A5
:101D500006D003280ED0062817D007282BD11FE065
:101D6000002004E02E490A5C2E490A54401C102829
:101D7000F8DB20E0002005E029490A5C2949103100
:101D80000A54401C1028F7DB15E0002005E0244928
:101D90000A5C244940310A54401C1028F7DB0AE051
:101DA000002005E01E490A5C1E4950310A54401CBF
:101DB0001028F7DB00BF00BF1B48006820BB194894
:101DC0002038D0F87700F8B116482038D0F86700EE
:101DD000D0B114482038D0F82700A8B111482038D5
:101DE000D0F8370080B1022003F03AFA032003F064
:101DF00037FA062003F034FA072003F031FA012005
:101E0000094900E002E0086004F0CCFF05F06AFB3D
:101E100010BD00000014014028640240400F002063
:101E200004060020440600208800002001F400720F
:101E3000B2F5007F00D100BFCA430280704710B5E1
:101E40000022002340F66A14A14200D100BF0A120A
:101E500001249440A3B2DC43048010BD21B18289E7
:101E600042F40052828104E082894DF6FF731A40E9
:101E7000828170471AB1838A0B43838202E0838A8E
:101E80008B4383827047000010B504463248844279
:101E900008D101211020FFF79FFA00211020FFF741
:101EA0009BFA57E02D48844209D101214804FFF7ED
:101EB00073FA00214FF40030FFF76EFA4AE0284829
:101EC000844209D101218804FFF766FA00214FF40A
:101ED0008020FFF761FA3DE02248844209D10121C8
:101EE000C804FFF759FA00214FF40020FFF754FA15
:101EF00030E01D48844209D101210805FFF74CFA62
:101F000000214FF48010FFF747FA23E0174884427E
:101F100008D101212020FFF75FFA00212020FFF7E0
:101F20005BFA17E01248844209D101218807FFF7C4
:101F300033FA00214FF08040FFF72EFA0AE00D48F7
:101F4000844207D101214005FFF726FA00216005F0
:101F5000FFF722FA10BD00000010014000440040CD
:101F600000480040004C0040005000400014014078
:101F700000780040007C004002460020B1F5007F60
:101F800000D100BF13880B400BB1012000E00020FE
:101F9000704770B50246002400230025002040F65B
:101FA0006A16B14200D100BFC1F3421501F01F0310
:101FB000012606FA03F3012D02D19689334006E08B
:101FC000022D02D1168A334001E0968A33400C126A
:101FD000012606FA04F41688344013B10CB101202E
:101FE00000E0002070BDF0B5034600240026002567
:101FF000002040F66A17B94200D100BF1846C1F36D
:10200000421401F01F06012707FA06F5012C01D141
:102010000C3004E0022C01D1103000E014301AB171
:1020200007682F43076002E00768AF430760F0BD11
:102030002DE9FF4705460E460024A14600BFA046F5
:10204000B08900B100BF2C8A24F44054F0880443C6
:102050002C82AC8941F20C608443B08831890843FA
:10206000718908430443AC81AC8A24F44074B0897C
:102070000443AC826846FFF7BFF92048854202D08E
:102080001F48854202D1DDF80C9001E0DDF8089090
:10209000A88900F4004040B109EBC90000EB091029
:1020A00031684900B0FBF1F707E009EBC90000EB2C
:1020B000091031688900B0FBF1F76420B7FBF0F03C
:1020C00004012009642101FB1078A88900F4004074
:1020D00040B1322000EBC800B0FBF1F000F0070087
:1020E000044308E0322000EB08106421B0FBF1F05B
:1020F00000F00F0004432C81BDE8FF870010014071
:102100000014014001468888C0F308007047C1F3FD
:1021100008028280704700BFFEE700000146481EAB
:10212000B0F1807F01D301207047481E4FF0E022BC
:102130005061FF20044A107000204FF0E0229061AF
:10214000072010610020EFE723ED00E003B40198C1
:102150004100009850EAC12018BF04204A0D18BF62
:1021600040F0010040F2FF72B2EB515F08BF40F057
:102170000200012808BF052002B0704700000000DF
:1021800010B5B94A2DED020B2DED0C8B82B00F99D5
:1021900021F000409FEDB6CB90422CDBA0F14053E4
:1021A0000E9AA3F17F631A430FD0B349884202DC31
:1021B00016D10E98A0B19DED0E0B02B0BDEC0C8BAC
:1021C00002B0BDE8104000F077BE0029C1BF9FED0E
:1021D000AC0B02B0BDEC0C8B02B0C8BF10BD16E05A
:1021E0000120FEF752FB02B0BDEC0C8B02B0BDE843
:1021F000104000F06DBEA44A9FEDA59B9FEDA6ABDD
:1022000090425EDAA6499FEDA8CB814208DBB0EE92
:102210004C0AF0EE6C0A02B0BDEC0C8B02B010BDA3
:102220009DED0E0B53EC102B51EC100B07F0E0FE64
:1022300041EC180B9E480621B0EE480AF0EE680A01
:10224000784400F025FD53EC182B51EC100B07F0EF
:10225000CFFE41EC1B0B9748B0EE480AF0EE680A3F
:102260000421784400F014FD53EC182B51EC100BB2
:1022700007F0BEFE53EC192B07F060FC41EC100B8D
:1022800051EC1B0B53EC102B07F000FD41EC100B35
:1022900053EC102B9DED0E0B51EC100B07F0A8FE2C
:1022A00053EC1A2B07F0A2FF9DED0E1B53EC112BE4
:1022B00007F09CFF53EC1C2B07F098FF41EC100B30
:1022C000A9E79FED7D8B9FED7EBB9DED0E0B002959
:1022D00053EC192B51EC100B52DA07F02FFC53EC96
:1022E000182B07F085FE41EC180B77480621B0EE5D
:1022F000480AF0EE680A784400F0CAFC53EC182B48
:1023000051EC100B07F074FE41EC1D0B6F48B0EE62
:10231000480AF0EE680A0421784400F0B9FC53EC56
:10232000182B51EC100B07F063FE53EC192B07F040
:1023300005FC41EC190B51EC180B07F05AFA41EC73
:10234000180B53EC192B51EC1D0B07F09FFC53ECB1
:10235000182B07F04DFE53EC1A2B08F01FF841EC38
:10236000100B51EC180B53EC102B07F0E7FB53EC60
:102370001B2B07F03DFE53EC1C2B07F037FF6DE0E5
:1023800007F034FF53EC182B07F032FE41EC180B2A
:1023900007F02FFA41EC1A0B00208DED00AB0090F6
:1023A0009DED000B51EC1A0B53EC102B07F0C6FB04
:1023B0009DED000B41EC1C0B53EC102B51EC100B62
:1023C00007F016FE53EC182B07F010FF53EC1C2BF4
:1023D00007F05CFC41EC1C0B3D48B0EE480AF0EE07
:1023E000680A0621784400F053FC53EC182B51EC9A
:1023F000100B07F0FDFD41EC1D0B3648B0EE480A0E
:10240000F0EE680A0421784400F042FC53EC182BEB
:1024100051EC100B07F0ECFD53EC192B07F08EFB81
:1024200041EC100B51EC1D0B53EC102B07F02EFC64
:1024300053EC1A2B07F0DCFD53EC1C2B07F07EFB52
:1024400041EC100B53EC102B9DED000B51EC100BDD
:1024500007F074FB53EC1B2B07F0CAFD41EC100B8B
:10246000D9E60000000000000000F03F000000007E
:10247000182D4454FB2109400000F07F00000000AB
:1024800000000000000000000000E03F000000002D
:10249000000000000000F03F075C143326A6913CCA
:1024A0000000603C00000000182D4454FB21F93F5F
:1024B0003C8C00004A8C0000000000000000E03F5F
:1024C0000000000000000040868B0000948B00009C
:1024D000988A0000A68A000010B52F499FED2C1B9A
:1024E0002DED020B84B0059820F000408842D8BF43
:1024F0009DED040B2DDD2949884209D1049840B98E
:102500004FF00100FEF7C1F900F0E2FC06B010BD8B
:1025100005DB9DED040B00F0CFFC06B010BD684656
:102520009DED040B00F0E0F810F0030004BF9DEDFA
:10253000021B9DED000B0CD001280ED09DED021B5F
:102540009DED000B022817D0012000F01DFC06B005
:1025500010BD00F0E5FA06B010BD9DED021B9DED2B
:10256000000B012000F010FC51EC100B07F0A7FA53
:1025700006B041EC100B10BD00F0D2FA51EC100B7C
:1025800007F09DFA06B041EC100B10BD00000000F2
:102590000000000000000000FB21E93F0000F07F88
:1025A00010B52F499FED2C1B2DED020B84B0059823
:1025B00020F000408842DCBF00209DED040B32DD9E
:1025C0002849884209D1049840B94FF00100FEF72C
:1025D0005CF900F07DFC06B010BD05DB9DED040B41
:1025E00000F06AFC06B010BD68469DED040B00F0DB
:1025F0007BF810F0030011D0012818D09DED021BCC
:102600009DED000B02281AD000F08AFA51EC100B55
:1026100007F055FA06B041EC100B10BD9DED021B02
:102620009DED000B012000F0AFFB06B010BD9DED4D
:10263000021B9DED000B00F073FA06B010BD0120E7
:1026400000F0A2FB51EC100B07F039FA06B041EC98
:10265000100B10BD00000000000000000000000092
:10266000FB21E93F0000F07F00B52DED048BB0EEBB
:10267000409AF0EE609A83B051EC190B07F0C2FD5E
:1026800041EC180B18EE100A18EE901A8DED008B25
:10269000002818BF0120084320F00040C0F17F60EF
:1026A00000F1E040C00F14D019EE101A19EE900A94
:1026B0008DED009B002918BF0121084320F0004048
:1026C000C0F17F6000F1E040C00F04BF0120FEF7C1
:1026D000DCF8B0EE480A03B0F0EE680ABDEC048BFB
:1026E00000BD0000000000002DE9F14F04462DED73
:1026F000020B2DED088B8AB09FEDE70B80ED020BEE
:10270000139EE74826F0004585420ADC9DED120B3A
:10271000002084ED000B0AB0BDEC088B03B0BDE8CF
:10272000F08FE0489FEDE0AB9FEDE1BBA84247DDB5
:10273000E14F9FEDE39B9FEDE48B9DED120B53EC7E
:102740001A2B51EC100B002E1CDD07F027FE41EC7C
:10275000100BBD4208D053EC1B2B51EC100B07F0B3
:102760001DFEC4E900010BE053EC192B51EC100BDA
:1027700007F014FE53EC182B07F010FEC4E900011B
:102780000120C8E707F0DAF941EC100BBD4208D090
:1027900053EC1B2B51EC100B07F0D0F9C4E90001EE
:1027A0000BE053EC192B51EC100B07F0C7F953EC6D
:1027B000182B07F0C3F9C4E900014FF0FF30AAE776
:1027C000C348A84279DB9DED120B51EC100B02F0CF
:1027D0000FF841EC180B9FEDC00B53EC102B07F0DA
:1027E00007FC9FEDBF1B53EC112B07F0A7F907F077
:1027F000A5FB074607F0D1FB41EC190B53EC1A2B54
:1028000007F0F6FB53EC182B07F0F0FC41EC180B2B
:1028100053EC1B2B51EC190B07F0EAFBDFF8C8A2B5
:1028200041EC100B4FEA15580125FA4453EC102BDC
:1028300051EC180B07F0B2FD032DC4E900013DD0A7
:10284000C1F30A5005EB4511A8EB00001139814294
:1028500034DA0AEB051BB0EE48AA9BED000BF0EE54
:1028600068AA53EC102B51EC190B07F0C1FB41EC9B
:102870001B0B51EC1A0B53EC1B2B07F08FFD41EC9B
:10288000180B51EC1A0B53EC182B07F087FD53EC87
:102890001B2B07F083FD9BED020B41EC1A0B53EC55
:1028A000102B51EC190B07F0A3FB53EC1A2B07F07C
:1028B00075FD41EC100B6D1CB8E70EE0002EA8BFB3
:1028C0003846BFF628AF94ED000B51EC100B07F023
:1028D000F6F8C4E9000178421DE7C6F3130040F49E
:1028E000801EC6F30A50A0F2F530471100F01F0514
:1028F000C5F12000DDF848B0089000200690079050
:102900000520EC467949002D07EB0002794408BF09
:1029100051F8221009D051F8223001EB8201AB406E
:102920004A68089922FA01F11943A1FB0E26A1FB7E
:102930000B131A449A4234BF0123002303EB060809
:102940000CEB8003D3E901A60E448E4234BF012173
:10295000002192448A4411B1924502D903E0924584
:1029600001D2012100E00021C3E901A641444CF855
:102970002010011EA0F10100C4DC029800F10050FB
:10298000850F0298DDE903678000DDF8148007F009
:1029900004FB41EC1A0B304607F016FB9FED541B6D
:1029A00053EC112B07F024FB41EC1B0B384607F0CE
:1029B0000BFB9FED511B53EC112B07F019FB41EC66
:1029C000180B404607F000FB9FED4D1B53EC112BFD
:1029D00007F00EFB41EC190B51EC180B53EC192BC3
:1029E00007F0ACF853EC1B2B07F0A8F853EC1A2BAC
:1029F00007F0A4F8CDE90801002008909DED080B30
:102A000053EC1A2B51EC100B07F0C8FC53EC1B2BAA
:102A100007F0C4FC53EC182B07F0C0FC53EC192B47
:102A200007F0E4FB9FED381B53EC112B07F0E0FAA5
:102A30009FED370B41EC180B53EC102B9DED080B61
:102A400051EC100B07F0D4FA53EC182B07F076F882
:102A50009FED310B41EC180B53EC102B9DED080B47
:102A600051EC100B07F0C4FA53EC182B07F066F882
:102A700041EC100B139810F0004F06D06D4251EC52
:102A8000100B07F01CF841EC100B284684ED000BEE
:102A900041E600000000000000000000000000000F
:102AA000FB21E93F7CD9024000004054FB21F93F63
:102AB0003163621A61B4D03DFB21F93F0000000090
:102AC0000000601A61B4D03D7370032E8A19A33BD5
:102AD000FB2139410000000083C8C96D305FE43F2D
:102AE000000000000000E03FD286000020860000C9
:102AF000000000000000103E000000000000103C3C
:102B0000000000000000103A182D4454FB21F93D4C
:102B10003326A611460B113C00000054FB21F93D61
:102B200010B52DED040B2DED088B82B0B0EE419A5F
:102B3000F0EE619A0B9820F000449FED4BABB4F19E
:102B4000795F11DA9DED0A0B51EC100B07F0F6F9E5
:102B5000002801BFB0EE4A0AF0EE6A0A02B0BDECEE
:102B6000088B04BF04B010BD9DED0A0B53EC102B75
:102B700051EC100B07F03CFA41EC180B3C480621D5
:102B8000B0EE480AF0EE680A784400F081F853ECA1
:102B9000182B51EC100B07F02BFA9DED0A0B41ECB2
:102BA0001B0B53EC192B51EC100B07F021FA41ECE5
:102BB000190B53EC1B2B51EC180B07F019FA53ECC3
:102BC000192B07F0EBFB9FED2C0B41EC190B53EC91
:102BD000102B51EC180B07F00BFA41EC100B2848A6
:102BE000844210DA53EC192B51EC100B07F0D6FB92
:102BF00053EC1A2B07F0FAFA41EC100B02B0BDECC3
:102C0000088B04B010BD1F48A042BCBF9FED1E1B27
:102C10008DED001B06DBA4F5001001900020009054
:102C20009DED001B51EC100B53EC112B07F0B6FB84
:102C30009DED000B41EC180B53EC102B51EC1A0BD3
:102C400007F0ACFB41EC1A0B53EC192B51EC180BB1
:102C500007F0A4FB53EC1A2B07F0C8FA41EC100B59
:102C6000CCE7000000000000000000000000F03F82
:102C70004483000000000000000000000000E03F6E
:102C80003333D33F0000E93F000000000000D23F93
:102C900070B504462DED028B4D1E00EBC500B0EE65
:102CA000408AF0EE608A90ED000B35F0060017D0F8
:102CB00053EC182B51EC100B07F09AF941EC100B68
:102CC0006D1E04EBC50090ED001B51EC100B53EC96
:102CD000112B06F033FF41EC100B35F00600E7D165
:102CE000022D36D0042D1CD0062D1CBFBDEC028B4E
:102CF00070BD53EC182B51EC100B07F079F994EDE3
:102D00000A1B53EC112B06F019FF53EC182B07F09C
:102D10006FF994ED081B53EC112B06F00FFF41ECFB
:102D2000100B53EC182B51EC100B07F061F994EDDC
:102D3000061B53EC112B06F001FF53EC182B07F088
:102D400057F994ED040B53EC102B06F0F7FE41EC11
:102D5000100B53EC182B51EC100B07F049F994EDC4
:102D6000021B53EC112B06F0E9FE53EC182B07F075
:102D70003FF994ED001B53EC112B06F0DFFEBDEC88
:102D8000028B41EC100B70BD31B504462DED040BE8
:102D90002DED0A8BB0EE41BAF0EE61BA0B989DEDC5
:102DA0000A0B20F00040B0F1795F0DDA51EC100B06
:102DB000FFF7CCF9042808BF00F09AF89DED0A0B44
:102DC000BDEC0A8B05B030BD53EC102B51EC100B51
:102DD00007F00EF941EC180B9DED0A0B53EC182B84
:102DE00051EC100B07F004F941EC190B2C48B0EE34
:102DF000480AF0EE680A05217844FFF749FF9FED85
:102E00002ACBB0EE40AAF0EE60AA9CB353EC1C2B88
:102E100051EC190B07F0ECF841EC1C0B53EC1A2B9E
:102E200051EC190B07F0E4F89FED210B41EC190B65
:102E300053EC102B51EC1B0B07F0DAF853EC192B69
:102E400007F0ACFA53EC182B07F0D2F853EC1B2B1D
:102E500007F0A4FA53EC1C2B07F0A0FA9DED0A1B17
:102E600053EC112B07F0C2F9BDEC0A8B05B041EC15
:102E7000100B30BDFFE753EC1A2B51EC180B07F089
:102E8000B7F853EC1C2B06F059FE53EC192B07F046
:102E9000AFF89DED0A1B53EC112B06F04FFEE3E754
:102EA000CC81000000000000495555555555C5BF5F
:102EB000000000000000E03F10B553EC102B51EC77
:102EC000100B06F03BFE41EC100B10BD00000000A3
:102ED0009FED050B10B553EC102B51EC100B06F0C9
:102EE000D5FE41EC100B10BD0000000000000000FA
:102EF0009FED050B10B553EC102B51EC100B07F0A8
:102F000077F841EC100B10BD00000000000000102D
:102F1000014609B900207047C8B220B1C8B20E4AB4
:102F2000105C401CF7E701F47F4028B10A48C1F368
:102F30000722805C0930EEE701F47F0028B10648E3
:102F4000C1F30742805C1130E5E7034800EB1160F4
:102F500000781930DFE70000D9AA000870B50446F0
:102F600006480068FFF7D4FF451E054850F83500B5
:102F7000A0F114062560304670BD00007C010020E1
:102F8000C00C00202DE9F0438BB00546894617465A
:102F900000242DB94FF49B721C491DA003F032FF91
:102FA0002FB940F2371219491AA003F02BFF00E0A5
:102FB000641C285D202804D0285D092801D04C45D8
:102FC000F6D324B94FF0FF300BB0BDE8F0832146B3
:102FD000284603F0CDFA064616B94FF0FF30F3E766
:102FE000282101A8FDF7F2FB01AA4946284603F073
:102FF0002FFB8046B8F1000F02D14FF0FF30E3E71E
:1030000001A94046B04738600020DDE721AE000846
:10301000636D6400726574700000000070B5044652
:1030200024B94F22134914A003F0ECFEA06A0078E3
:10303000232809D1A16AE069884205D9D4E90A01A7
:103040000844E16988420AD2214610A004F0B2FA8D
:10305000FDF72EF9054600BF002DFDD108E0A06A5E
:103060002030E169814203D821460FA004F0A2FA82
:1030700070BD0000B7AC00087468726561642021FF
:103080003D2052545F4E554C4C00000074687265F0
:1030900061643A257320737461636B206F76657287
:1030A000666C6F770A0000007761726E696E673A2E
:1030B00020257320737461636B20697320636C6FC8
:1030C000736520746F20656E64206F662073746171
:1030D000636B20616464726573732E0A00000000E4
:1030E0002DE9FC5F04468B4616461F46DDE90C9A27
:1030F000DDE90E5804F114004060006000BF266254
:103100006762C4F82890C4F82CA02321D4E90A02ED
:1031100004F049FCD4E90A3C63441A1F174BD4E974
:10312000080104F08DF9E061202D04DBB022144980
:1031300014A003F067FE3034A57165710020A06013
:10314000C4F81480C4F8188020602071A064E06482
:10315000303C00902346144A2146019004F14C0073
:1031600005F058FF00BF1148006818B120460F490C
:103170000968884700BF0020BDE8FC9F5987000808
:1031800005AD00087072696F72697479203C205235
:10319000545F5448524541445F5052494F5249543C
:1031A000595F4D4158000000498C0008A0010020E3
:1031B0002DE9F04704460E4617469846DDF8209064
:1031C00084F80990607A20F001006072E66127625D
:1031D0000020A062C4F82480002506E004F1140158
:1031E00001EBC50004F004FA6D1C012DF6DBBDE80F
:1031F000F08770B50546002406E005F1140101EBE7
:10320000C40004F048FA641C012CF6DB70BD00BF5A
:10321000704770B50446FDF74BF80546A06F10B136
:103220002046A16F88472846FDF746F870BD00008C
:1032300010B520A004F0BEF92148017821A004F0C7
:10324000B9F91F48007800F0010010B123A004F084
:10325000B1F91B48007800F0020010B122A004F080
:10326000A9F91748007800F0040010B121A004F07B
:10327000A1F91348007800F0080010B121A004F073
:1032800099F90F48007800F0100010B120A004F068
:1032900091F90B48007800F0800030B108480F30F9
:1032A00001681DA004F086F902E01FA004F082F975
:1032B00010BD0000627573206661756C743A0A0077
:1032C00029ED00E05343425F434653525F42465369
:1032D000523A307825303258200000004942555388
:1032E0004552522000000000505245434953455278
:1032F00052200000494D50524543495345525220F7
:1033000000000000554E53544B455252200000001F
:1033100053544B45525220005343422D3E424641A6
:10332000523A253038580A000A00000010B502A0B1
:1033300004F040F9002010BD1B5B324A1B5B4800C3
:1033400070B504460D4602F001FA002070BD70B55C
:1033500004460D4602F0FAFB002070BD70B506462B
:103360000C46154605E014F8011B304600F008F83D
:103370000646281EA5F10105F5D1304670BD0000B6
:10338000024682EA0100C0B2024B33F8100080EA24
:1033900022207047A6A6000801B52DED020B94B0BF
:1033A000169890ED080AD0ED120A60EE200A9DED05
:1033B000140AF4EEC00AF1EE10FA7CDB169890EDD8
:1033C000120AD0ED080A60EE200A9DED140A9FED66
:1033D000FE1A20EE010A80EE201A80ED131A1698CC
:1033E000C06C079007F0C4F8CDE908019DED080B0B
:1033F000FFF772F88DED0A0B9FEDF40B53EC102BD9
:103400009DED0A0B51EC100B06F0F0FECDE90E011C
:103410001698406A0B9007F0ABF8CDE90C019DEDD2
:103420000E0B53EC102B9DED0C0B51EC100B06F01A
:10343000DFFD9FEDE80B53EC102BCDE910019DED66
:10344000100B51EC100B06F021FCCDE912019DEDA3
:10345000120B51EC100B06F03FFB1699C1F89000CF
:103460001698C06C079007F083F8CDE908019DED30
:10347000080BFFF731F88DED0A0B9FEDD40B53ECE1
:10348000102B9DED0A0B51EC100B06F0AFFECDE9B1
:103490000E011698406A0B9007F06AF8CDE90C010E
:1034A0009DED0E0B53EC102B9DED0C0B51EC100B06
:1034B00006F09EFD00E0F6E39FEDC60B53EC102BEB
:1034C000CDE910019DED100B51EC100B06F0DEFB69
:1034D000CDE912019DED120B51EC100B06F0FCFA38
:1034E00001461698C0F894101698C06C079007F023
:1034F0003FF8CDE908019DED080BFEF7EDFF8DEDDE
:103500000A0B9FEDB20B53EC102B9DED0A0B51EC07
:10351000100B06F06BFECDE90E011698406A0B9079
:1035200007F026F8CDE90C019DED0E0B53EC102BA6
:103530009DED0C0B51EC100B06F05AFD9FEDA50B09
:1035400053EC102BCDE910019DED100B51EC100B3D
:1035500006F09CFBCDE912019DED120B51EC100B16
:1035600006F0BAFA01461698C0F898101698C06C82
:10357000079006F0FDFFCDE908019DED080BFEF771
:10358000ABFF8DED0A0B9FED910B53EC102B9DEDD6
:103590000A0B51EC100B06F029FECDE90E0116982E
:1035A000406A0B9006F0E4FFCDE90C019DED0E0B97
:1035B00053EC102B9DED0C0B51EC100B06F018FD8D
:1035C0009FED840B53EC102BCDE910019DED100BFA
:1035D00051EC100B06F05AFBCDE912019DED120BD8
:1035E00051EC100B06F078FA01461698C0F89C10C2
:1035F0001698806A0D9006F0BBFFCDE91001169871
:10360000C06C019006F0B4FFCDE902019DED020B04
:10361000FEF7C6FF8DED060B1698C06C039006F002
:10362000A7FFCDE904019DED060B53EC102B9DED9A
:10363000040B51EC100B06F0B1FE9FED680B53EC40
:10364000102BCDE908019DED080B51EC100B06F095
:103650001DFBCDE90C01169890ED0E0AD0ED0A0A7B
:1036600030EE600A8DED090A099806F081FFCDE978
:103670000A019DED0C0B53EC102B9DED0A0B51EC48
:10368000100B06F0B5FCCDE90E019DED100B53ECCF
:10369000102B9DED0E0B51EC100B06F04FFACDE9FF
:1036A00012019DED120B51EC100B06F015FA169954
:1036B00008671698806B0D9006F05AFFCDE910014F
:1036C0001698C06C019006F053FFCDE902019DED04
:1036D000020BFEF765FF8DED060B1698C06C03908C
:1036E00006F046FFCDE904019DED060B53EC102BCF
:1036F0009DED040B51EC100B06F050FE9FED370BC7
:1037000053EC102BCDE908019DED080B51EC100B8B
:1037100006F0BCFACDE90C01169890ED0A0AD0ED3E
:103720000E0A30EE600A8DED090A099806F020FFB6
:10373000CDE90A019DED0C0B53EC102B9DED0A0B0E
:1037400051EC100B06F054FCCDE90E019DED100B71
:1037500053EC102B9DED0E0B51EC100B06F0EEF917
:10376000CDE912019DED120B51EC100B06F0B4F9EE
:103770001699C1F880001698C06A0D9006F0F8FE00
:10378000CDE910011698C06C019006F0F1FECDE96C
:1037900002019DED020BFEF703FF8DED060B16985F
:1037A000C06C039006F0E4FECDE904019DED060B2C
:1037B00053EC102B9DED040B51EC100B06F0EEFDBD
:1037C0009FED060B0EE00000DB0FC940000000007B
:1037D0000000F03F0000000000000040000000601A
:1037E000FB21194053EC102BCDE908019DED080B8E
:1037F00051EC100B06F04AFACDE90C011698D0ED09
:103800000F0A90ED0B0A30EEC00A8DED090A0998F7
:1038100006F0AEFECDE90A019DED0C0B53EC102B2A
:103820009DED0A0B51EC100B06F0E2FBCDE90E0109
:103830009DED100B53EC102B9DED0E0B51EC100B6E
:1038400006F07CF9CDE912019DED120B51EC100B45
:1038500006F042F90146169841671698C06B0D9024
:1038600006F086FECDE910011698C06C019006F0B6
:103870007FFECDE902019DED020BFEF791FE8DED7D
:10388000060B1698C06C039006F072FECDE9040199
:103890009DED060B53EC102B9DED040B51EC100B22
:1038A00006F07CFD1FED330B53EC102BCDE9080126
:1038B0009DED080B51EC100B06F0E8F9CDE90C0179
:1038C000169890ED0B0AD0ED0F0A30EE600A8DEDE0
:1038D000090A099806F04CFECDE90A019DED0C0B92
:1038E00053EC102B9DED0A0B51EC100B06F080FBF6
:1038F000CDE90E019DED100B53EC102B9DED0E0B41
:1039000051EC100B06F01AF9CDE912019DED120BE6
:1039100051EC100B06F0E0F801461698C0F8841040
:103920001698006B0D9006F023FECDE91001169855
:10393000C06C019006F01CFECDE902019DED020B6A
:10394000FEF72EFE8DED060B1698C06C039006F068
:103950000FFECDE904019DED060B53EC102B9DED00
:10396000040B51EC100B06F019FD1FED640B53EC2A
:10397000102BCDE908019DED080B51EC100B06F062
:1039800085F9CDE90C01169890ED100AD0ED0C0ADE
:1039900030EE600A8DED090A099806F0E9FDCDE9DF
:1039A0000A019DED0C0B53EC102B9DED0A0B51EC15
:1039B000100B06F01DFBCDE90E019DED100B53EC35
:1039C000102B9DED0E0B51EC100B06F0B7F8CDE966
:1039D00012019DED120B51EC100B06F07DF8014623
:1039E000169881671698006C0D9006F0C1FDCDE920
:1039F00010011698C06C019006F0BAFDCDE90201E5
:103A00009DED020BFEF7CCFD8DED060B1698C06CFC
:103A1000039006F0ADFDCDE904019DED060B53ECDE
:103A2000102B9DED040B51EC100B06F0B7FC1FEDB5
:103A3000950B53EC102BCDE908019DED080B51ECD3
:103A4000100B06F023F9CDE90C01169890ED0C0A45
:103A5000D0ED100A30EE600A8DED090A099806F0E3
:103A600087FDCDE90A019DED0C0B53EC102B9DED6C
:103A70000A0B51EC100B06F0BBFACDE90E019DEDDF
:103A8000100B53EC102B9DED0E0B51EC100B06F0B0
:103A900055F8CDE912019DED120B51EC100B06F01B
:103AA0001BF801461698C0F888101698406B0D90C8
:103AB00006F05EFDCDE910011698C06C019006F08D
:103AC00057FDCDE902019DED020BFEF769FD8DED7D
:103AD000060B1698C06C039006F04AFDCDE9040170
:103AE0009DED060B53EC102B9DED040B51EC100BD0
:103AF00006F054FC1FEDC70B53EC102BCDE9080169
:103B00009DED080B51EC100B06F0C0F8CDE90C014F
:103B10001698D0ED110A90ED0D0A30EEC00A8DED29
:103B2000090A099806F024FDCDE90A019DED0C0B68
:103B300053EC102B9DED0A0B51EC100B06F058FACC
:103B4000CDE90E019DED100B53EC102B9DED0E0BEE
:103B500051EC100B05F0F2FFCDE912019DED120BB7
:103B600051EC100B05F0B8FF01461698C167169886
:103B7000406C0D9006F0FCFCCDE910011698C06C6D
:103B8000019006F0F5FCCDE902019DED020BFEF778
:103B900007FD8DED060B1698C06C039006F0E8FC4F
:103BA000CDE904019DED060B53EC102B9DED040BAC
:103BB00051EC100B06F0F2FB1FEDF80B53EC102B41
:103BC000CDE908019DED080B51EC100B06F05EF8F5
:103BD000CDE90C01169890ED0D0AD0ED110A30EEEA
:103BE000600A8DED090A099806F0C2FCCDE90A01C8
:103BF0009DED0C0B53EC102B9DED0A0B51EC100BB3
:103C000006F0F6F9CDE90E019DED100B53EC102BEB
:103C10009DED0E0B51EC100B05F090FFCDE912015C
:103C20009DED120B51EC100B05F056FF0146169856
:103C3000C0F88C10169890ED180A80ED040A1698BA
:103C400090ED190AD0ED250A30EE600A80ED050AE4
:103C5000169890ED1A0AD0ED260A30EE600A80ED33
:103C6000060A169890ED1B0A80ED070A169890ED4B
:103C70001C0AB1EE400A80ED000A169890ED210A68
:103C8000B1EE400A80ED010A169890ED220AB1EEDD
:103C9000400A80ED020A169890ED1F0AB1EE400A24
:103CA00080ED030AFEE3FFE7169890ED080AD0EDD9
:103CB000120A60EE200A9DED140AF4EEC00AF1EE3D
:103CC00010FAEFD21698D0ED080A9DED140AF4EE22
:103CD000C00AF1EE10FAE5DD1698D0ED120A90ED6B
:103CE000081A9DED140A00EEC10ADFEDFE0A20EE6F
:103CF000200AD0ED120A90ED081A60EE810A80EEDB
:103D0000201A80ED131A1698C06C079006F030FC4C
:103D1000CDE908019DED080BFEF7DEFB8DED0A0BEA
:103D20009FEDF10B53EC102B9DED0A0B51EC100B9A
:103D300006F05CFACDE90E011698406A0B9006F089
:103D400017FCCDE90C019DED0E0B53EC102B9DEDF6
:103D50000C0B51EC100B06F04BF99FEDE50B53ECFF
:103D6000102BCDE910019DED100B51EC100B05F05F
:103D70008DFFCDE912019DED120B51EC100B05F0FA
:103D8000ABFE1699C1F890001698C06C079006F02B
:103D9000EFFBCDE908019DED080BFEF79DFB8DEDD6
:103DA0000A0B9FEDD10B53EC102B9DED0A0B51EC40
:103DB000100B06F01BFACDE90E011698406A0B9025
:103DC00006F0D6FBCDE90C019DED0E0B53EC102B4C
:103DD0009DED0C0B51EC100B06F00AF99FEDC40B96
:103DE00053EC102BCDE910019DED100B51EC100B95
:103DF00005F04CFFCDE912019DED120B51EC100BBB
:103E000005F06AFE01461698C0F894101698C06C2A
:103E1000079006F0ADFBCDE908019DED080BFEF71C
:103E20005BFB8DED0A0B9FEDB00B53EC102B9DED62
:103E30000A0B51EC100B06F0D9F9CDE90E011698DA
:103E4000406A0B9006F094FBCDE90C019DED0E0B42
:103E500053EC102B9DED0C0B51EC100B06F0C8F839
:103E60009FEDA30B53EC102BCDE910019DED100B32
:103E700051EC100B05F00AFFCDE912019DED120B7C
:103E800051EC100B05F028FE01461698C0F898106A
:103E90001698C06C079006F06BFBCDE908019DED0C
:103EA000080BFEF719FB8DED0A0B9FED8F0B53EC02
:103EB000102B9DED0A0B51EC100B06F097F9CDE994
:103EC0000E011698406A0B9006F052FBCDE90C01EA
:103ED0009DED0E0B53EC102B9DED0C0B51EC100BCC
:103EE00006F086F89FED820B53EC102BCDE9100104
:103EF0009DED100B51EC100B05F0C8FECDE9120141
:103F00009DED120B51EC100B05F0E6FD01461698E5
:103F1000C0F89C101698806A0D9006F029FBCDE938
:103F200010011698C06C019006F022FBCDE9020149
:103F30009DED020BFEF734FB8DED060B1698C06C61
:103F4000039006F015FBCDE904019DED060B53EC43
:103F5000102B9DED040B51EC100B06F01FFA9FED9A
:103F6000660B53EC102BCDE908019DED080B51ECCD
:103F7000100B05F08BFECDE90C01169890ED0E0AA2
:103F8000D0ED0A0A30EE600A8DED090A099806F0B4
:103F9000EFFACDE90A019DED0C0B53EC102B9DEDD2
:103FA0000A0B51EC100B06F023F8CDE90E019DED44
:103FB000100B53EC102B9DED0E0B51EC100B05F07C
:103FC000BDFDCDE912019DED120B51EC100B05F07A
:103FD00083FD169908671698806B0D9006F0C8FA55
:103FE000CDE910011698C06C019006F0C1FACDE938
:103FF00002019DED020BFEF7D3FA8DED060B16982C
:10400000C06C039006F0B4FACDE904019DED060BF7
:1040100053EC102B9DED040B51EC100B06F0BEF988
:104020009FED350B53EC102BCDE908019DED080BEE
:1040300051EC100B05F02AFECDE90C01169890ED1D
:104040000A0AD0ED0E0A30EE600A8DED090A0998D1
:1040500006F08EFACDE90A019DED0C0B53EC102B06
:104060009DED0A0B51EC100B05F0C2FFCDE90E01DE
:104070009DED100B53EC102B9DED0E0B51EC100B26
:1040800005F05CFDCDE912019DED120B51EC100B1A
:1040900005F022FD1699C1F880001698C06A0D90AF
:1040A00006F066FACDE910011698C06C019006F092
:1040B0005FFACDE902019DED020BFEF771FA8DED7D
:1040C000060B1698C06C039006F052FACDE9040175
:1040D0009DED060B53EC102B9DED040B51EC100BDA
:1040E0000EE00000DB0FC940000000000000F03FC0
:1040F000000000000000004000000060FB211940AB
:1041000006F04CF91FED040B53EC102BCDE9080120
:104110009DED080B51EC100B05F0B8FDCDE90C013D
:10412000169890ED0F0AD0ED0B0A30EE600A8DED77
:10413000090A099806F01CFACDE90A019DED0C0B5D
:1041400053EC102B9DED0A0B51EC100B05F050FFBA
:10415000CDE90E019DED100B53EC102B9DED0E0BD8
:1041600051EC100B05F0EAFCCDE912019DED120BAC
:1041700051EC100B05F0B0FC0146169841671698FB
:10418000C06B0D9006F0F4F9CDE910011698C06CE3
:10419000019006F0EDF9CDE902019DED020BFEF76D
:1041A000FFF98DED060B1698C06C039006F0E0F950
:1041B000CDE904019DED060B53EC102B9DED040B96
:1041C00051EC100B06F0EAF81FED350B53EC102BF9
:1041D000CDE908019DED080B51EC100B05F056FDE3
:1041E000CDE90C01169890ED0B0AD0ED0F0A30EED8
:1041F000600A8DED090A099806F0BAF9CDE90A01BD
:104200009DED0C0B53EC102B9DED0A0B51EC100B9C
:1042100005F0EEFECDE90E019DED100B53EC102BD9
:104220009DED0E0B51EC100B05F088FCCDE9120151
:104230009DED120B51EC100B05F04EFC014616984B
:10424000C0F884101698006B0D9006F091F9CDE936
:1042500010011698C06C019006F08AF9CDE90201B0
:104260009DED020BFEF79CF98DED060B1698C06CC8
:10427000039006F07DF9CDE904019DED060B53ECAA
:10428000102B9DED040B51EC100B06F087F81FED81
:10429000660B53EC102BCDE908019DED080B51EC9A
:1042A000100B05F0F3FCCDE90C011698D0ED100AC7
:1042B00090ED0C0A30EEC00A8DED090A099806F05F
:1042C00057F9CDE90A019DED0C0B53EC102B9DED38
:1042D0000A0B51EC100B05F08BFECDE90E019DEDA4
:1042E000100B53EC102B9DED0E0B51EC100B05F049
:1042F00025FCCDE912019DED120B51EC100B05F0E0
:10430000EBFB0146169881671698006C0D9006F03D
:104310002FF9CDE910011698C06C019006F028F92C
:10432000CDE902019DED020BFEF73AF98DED060B8A
:104330001698C06C039006F01BF9CDE904019DEDC1
:10434000060B53EC102B9DED040B51EC100B06F0FB
:1043500025F81FED970B53EC102BCDE908019DEDCF
:10436000080B51EC100B05F091FCCDE90C011698EF
:1043700090ED0C0AD0ED100A30EE600A8DED090ABE
:10438000099806F0F5F8CDE90A019DED0C0B53EC08
:10439000102B9DED0A0B51EC100B05F029FECDE919
:1043A0000E019DED100B53EC102B9DED0E0B51ECFF
:1043B000100B05F0C3FBCDE912019DED120B51EC82
:1043C000100B05F089FB01461698C0F88810169866
:1043D000406B0D9006F0CCF8CDE910011698C06C3A
:1043E000019006F0C5F8CDE902019DED020BFEF744
:1043F000D7F88DED060B1698C06C039006F0B8F850
:10440000CDE904019DED060B53EC102B9DED040B43
:1044100051EC100B05F0C2FF1FEDC90B53EC102B34
:10442000CDE908019DED080B51EC100B05F02EFCB9
:10443000CDE90C01169890ED110AD0ED0D0A30EE81
:10444000600A8DED090A099806F092F8CDE90A0193
:104450009DED0C0B53EC102B9DED0A0B51EC100B4A
:1044600005F0C6FDCDE90E019DED100B53EC102BB0
:104470009DED0E0B51EC100B05F060FBCDE9120128
:104480009DED120B51EC100B05F026FB0146169822
:10449000C1671698406C0D9006F06AF8CDE91001DE
:1044A000169800E092E0C06C019006F061F8CDE94A
:1044B00002019DED020BFEF773F88DED060B1698C9
:1044C000C06C039006F054F8CDE904019DED060B95
:1044D00053EC102B9DED040B51EC100B05F05EFF1F
:1044E0001FEDFB0B53EC102BCDE908019DED080BE4
:1044F00051EC100B05F0CAFBCDE90C01169890EDBC
:104500000D0AD0ED110A30EE600A8DED090A099806
:1045100006F02EF8CDE90A019DED0C0B53EC102BA3
:104520009DED0A0B51EC100B05F062FDCDE90E017B
:104530009DED100B53EC102B9DED0E0B51EC100B61
:1045400005F0FCFACDE912019DED120B51EC100BB8
:1045500005F0C2FA01461698C0F88C10169890ED36
:10456000180AD0ED240A30EE600A80ED040A16988D
:1045700090ED190A80ED050A169890ED1A0A80ED63
:10458000060A169890ED1B0AD0ED270A30EE600A55
:1045900080ED070A169890ED200AB1EE400A80EDF2
:1045A000000A169890ED1D0AB1EE400A80ED010A4E
:1045B000169890ED1E0AB1EE400A80ED020A169898
:1045C00090ED230AB1EE400A80ED030A17B000BD5A
:1045D00080ED120AC0ED080A80ED091A80ED182A54
:1045E00080ED192A80ED1A2A80ED1B2AC0ED001AF1
:1045F000C0ED011AC0ED021AC0ED031AC0ED0A2A7F
:1046000080ED0E3AC0ED0B2A80ED0F3AC0ED0C2A7A
:1046100080ED103AC0ED0D2A80ED113A7047000090
:104620009FED720A80ED2A0A9FED700A80ED2B0A39
:104630009FED6E0A80ED2C0A9FED6C0A80ED2E0A2C
:104640009FED6A0A80ED2F0A9FED680A80ED300A1F
:104650009FED660A80ED310A9FED640A80ED120A33
:104660009FED620A80ED1C0A9FED600A80ED200A32
:104670009FED5E0A80ED240A9FED5C0A80ED1D0A25
:104680009FED5A0A80ED210A9FED580A80ED250A18
:104690009FED560A80ED1E0A9FED540A80ED220A16
:1046A0009FED520A80ED260A9FED500A80ED1F0A09
:1046B0009FED4E0A80ED230A9FED4C0A80ED270AFC
:1046C0009FED4A0A80ED090A9FED480A80ED320A03
:1046D0009FED460A80ED330A9FED440A80ED340ACF
:1046E0009FED420A80ED350A9FED400A80ED360AC3
:1046F0009FED3E0A80ED370A9FED3C0A80ED380AB7
:104700009FED3A0A80ED390A9FED380A80ED000AE4
:104710009FED360A80ED010A9FED340A80ED020A12
:104720009FED320A80ED030A9FED300A80ED040A06
:104730009FED2E0A80ED050A9FED2C0A80ED060AFA
:104740009FED2A0A80ED070A9FED280A80ED130AE3
:104750009FED260A80ED140A9FED240A80ED180AC9
:104760009FED220A80ED150A9FED200A80ED190ABF
:104770009FED1E0A80ED160A9FED1C0A80ED1A0AB5
:104780009FED1A0A80ED170A9FED180A80ED1B0AAB
:104790009FED160A80ED290A9FED140A80ED280A84
:1047A0009FED120A80ED080A9FED100A80ED0A0ABB
:1047B0009FED0E0A80ED0E0A9FED0C0A80ED0B0AAC
:1047C0009FED0A0A80ED0F0A9FED080A80ED0C0AA2
:1047D0009FED060A80ED100A9FED040A80ED0D0A98
:1047E0009FED020A80ED110A7047000000000000F2
:1047F00082B0CDE9000121F0004001909DED000B59
:1048000002B051EC100B704710B51448006890F8D6
:104810002100C0F3400020B900201149087008466B
:1048200010BD1048006838B180220E4801680C485D
:10483000FBF7F3FF0A48F3E701F008FF20B10AA1F4
:104840000748FBF790FE03E009A10548FBF78BFE44
:1048500009A10348FBF715FF0148E1E7C801002063
:10486000C00D0020CC0100206D7368200000000006
:1048700066696E73682000003E00000010B502F00B
:1048800083FC10BD10B504460948006820B9A32276
:10489000084909A002F0B6FA0548006890F821001E
:1048A00064F341000249096881F8210010BD00004D
:1048B000C801002045AE00087368656C6C20213D7E
:1048C0002052545F4E554C4C00000000024A1060CC
:1048D000024A116070470000B8010020BC010020AE
:1048E0007CB5002517491848FFF7F0FF4FF4037116
:1048F000012002F0C1FA154908600846006820B995
:1049000013A002F057FE681E7CBD0A201E214FF442
:1049100000630022CDE90010134914A003F0F3FE58
:10492000044600231A4613A10848006803F016FC49
:104930000120FFF7A7FF1CB115B9204604F0B4F819
:104940000020E1E754B6000834B50008C801002093
:104950006E6F206D656D6F727920666F722073685F
:10496000656C6C0A000000007D490008747368657E
:104970006C6C00007368727800000000FE480068EC
:1049800090F8210020F00100401CFB49096881F8E3
:104990002100FFF739FF054602F00CFE5EE2FFF74B
:1049A0006DFF0446002C00DA58E21B2C05D10120D3
:1049B000F149096881F8200050E2EF48006890F85A
:1049C000200001280DD15B2C05D10220EA4909689D
:1049D00081F8200042E20020E749096881F82000C0
:1049E000BEE0E548006890F820000228F8D10020D9
:1049F000E149096881F82000412C36D1DE48006881
:104A0000408C002807DDDC480068408C401EDA49F5
:104A10000968488404E00020D749096848841DE2F9
:104A2000D5480068408C00EB8002D34800682630EF
:104A300000EB02115022D048006800F5DB70FBF754
:104A40002CFECD48006800F5DB70FBF7B0FD80B2AE
:104A5000C9490968A1F80802C7490968A1F80A020A
:104A6000C548006804F016FEF8E1422C42D1C24865
:104A70000068418CC0480068808C401E814207DA83
:104A8000BD480068408C401CBB49096848840CE064
:104A9000B9480068808C38B1B7480068808C401EE7
:104AA000B5490968488400E0D8E1B3480068408C03
:104AB00000EB8002B0480068263000EB0211502263
:104AC000AD48006800F5DB70FBF7E7FDAA48006819
:104AD00000F5DB70FBF76BFD80B2A7490968A1F810
:104AE0000802A5490968A1F80A02A348006804F071
:104AF000D1FDB3E1442C11D19F480068B0F80A02FF
:104B000058B19EA002F056FD9B480068B0F80A021A
:104B1000401E99490968A1F80A029FE1432C1FD160
:104B200095480068B0F80A0293490968B1F808127C
:104B3000884214DA90480068B0F80A228E4800686B
:104B400000F5DB70815C8EA002F034FD8A480068BD
:104B5000B0F80A02401C88490968A1F80A027DE100
:104B60000CB1FF2C00D179E1092C21D1002503E003
:104B700082A002F01FFD6D1C7F480068B0F80A0299
:104B8000A842F5DC7C48006800F5DB7004F066FDA7
:104B90007948006800F5DB70FBF709FD80B27649C3
:104BA0000968A1F8080274490968A1F80A0255E1E8
:104BB0007F2C01D0082C74D16F480068B0F80A022D
:104BC00000B94BE16C480068B0F80802401E6A4921
:104BD0000968A1F8080268480068B0F80A02401E97
:104BE00065490968A1F80A0263480068B0F808023C
:104BF00061490968B1F80A12884243DD5E4B1B68BF
:104C0000B3F808325C4E3668B6F80A629A1B5A4B03
:104C10001B68B3F80A325B1C574E366806F5DB7624
:104C20009919554B1B68B3F80A62534B1B6803F57F
:104C3000DB73F01802F096FE00214F480068B0F8D0
:104C400008224D48006800F5DB7081544A4800682E
:104C5000B0F80A224848006800F5DB70111849A036
:104C600002F0A8FC44480068B0F80A5203E043A0F0
:104C700002F0A0FC6D1C40480068B0F80802A84291
:104C8000F5DA0CE041A002F095FC00213A480068FA
:104C9000B0F808223848006800F5DB708154DDE088
:104CA000FFE70D2C01D00A2C31D13348006804F005
:104CB00009FD01F0CBFC012813D12F48006890F8C2
:104CC000210000F0010010B131A002F073FC2A486D
:104CD0000068B0F808122848006800F5DB7001F0A1
:104CE00011FCFFF791FD054602F064FC51212248BA
:104CF000006800F5DB70FBF747FD00201E490968DE
:104D0000A1F808021C490968A1F80A02A6E01A489D
:104D10000068B0F80802502804DB00201649096832
:104D2000A1F8080214480068B0F80A02124909689C
:104D3000B1F80812884259DA0F4B1B68B3F80832F1
:104D40000D4E3668B6F80A629A1B0B4B1B68B3F817
:104D50000A62094B1B6803F5DB73F118064B1B68ED
:104D6000B3F80A325B1C044E366806F5DB769819F8
:104D700002F0F8FD00480DE0C80100200800000026
:104D80002563000008257320200800000820080083
:104D90000A0000000068B0F80A223148006800F5F7
:104DA000DB7084542E48006890F8210000F0010068
:104DB00058B12B480068B0F80A222948006800F56D
:104DC000DB70111827A002F0F5FB25480068B0F849
:104DD0000A5204E0AFF25C0002F0ECFB6D1C2048CC
:104DE0000068B0F80802A842F4DC14E01C4800682F
:104DF000B0F808221A48006800F5DB70845418489F
:104E0000006890F8210000F0010020B12146AFF2C7
:104E1000900002F0CFFB002411480068B0F80802AF
:104E2000401C0F490968A1F808020D480068B0F855
:104E30000A02401C0A490968A1F80A0208480068E9
:104E4000B0F80802502808DB002005490968A1F8DD
:104E5000080203490968A1F80A0200BF9FE50000A3
:104E6000C801002025730000064A914200D106497E
:104E700000BF0A8802F04002002AFAD0C2B28A803B
:104E800070470000440000200048004010B52DEDA0
:104E9000028BB0EE408A04462046B0EE480AFEF788
:104EA0007BFA94ED280AF7EE000AB4EE600AF1EE00
:104EB00010FA7DD194ED041AF0EE410A94ED001A37
:104EC000B0EE410A9FEDBC2AF3EE0A1A9FEDBB1A21
:104ED00001F04EF884ED2A0A94ED041AF0EE410A2E
:104EE00094ED001AB0EE410A9FEDB32AF3EE0A1AD0
:104EF0009FEDB21A01F0E0F884ED2B0A2246012161
:104F0000002001F095FD94ED051AF0EE410A94EDB4
:104F1000011AB0EE410A9FEDA82AF3EE0A1A9FED9E
:104F2000A71A01F025F884ED2C0A94ED051AF0EE8D
:104F3000410A94ED011AB0EE410A9FED9F2AF3EE6B
:104F40000A1A9FED9E1A01F0B7F884ED2D0A224649
:104F50000321022001F06CFD94ED061AF0EE410AE7
:104F600094ED021AB0EE410A9FED932AF3EE0A1A6D
:104F70009FED921A00F0FCFF84ED2E0A94ED061AC4
:104F8000F0EE410A94ED021AB0EE410A9FED8A2A32
:104F9000F3EE0A1A9FED891A01F08EF884ED2F0ABC
:104FA00022460521042001F043FD94ED071A00E09C
:104FB00034E0F0EE410A94ED031AB0EE410A9FEDA1
:104FC0007E2AF3EE0A1A9FED7D1A00F0D1FF84EDE0
:104FD000300A94ED071AF0EE410A94ED031AB0EE90
:104FE000410A9FED752AF3EE0A1A9FED741A01F03B
:104FF00063F884ED310A22460721062001F018FDEE
:1050000094ED290AD4ED080AB4EEE00AF1EE10FAA4
:1050100003DB9FED690A84ED290AC9E094ED280AB3
:10502000F0EE000AB4EE600AF1EE10FAF5D194ED5C
:10503000041AF0EE410A94ED001AB1EE411AB0EEF6
:10504000410A9FED5D2AF3EE0A1A9FED5C1A00F00B
:105050008FFF84ED2A0A94ED041AF0EE410A94EDD4
:10506000001AB1EE411AB0EE410A9FED532AF3EE59
:105070000A1A9FED521A01F01FF884ED2B0A2246FE
:105080000121002001F0D4FC94ED051AF0EE410A54
:1050900094ED011AB1EE411AB0EE410A9FED462A95
:1050A000F3EE0A1A9FED451A00F062FF84ED2C0A18
:1050B00094ED051AF0EE410A94ED011AB1EE411A91
:1050C000B0EE410A9FED3C2AF3EE0A1A9FED3B1A1F
:1050D00000F0F2FF84ED2D0A22460321022001F0A8
:1050E000A7FC94ED061AF0EE410A94ED021AB1EE17
:1050F000411AB0EE410A9FED302AF3EE0A1A9FEDF5
:105100002F1A00F035FF84ED2E0A94ED061AF0EE0A
:10511000410A94ED021AB1EE411AB0EE410A9FED38
:10512000262AF3EE0A1A9FED251A00F0C5FF84ED3A
:105130002F0A22460521042001F07AFC94ED071A7B
:10514000F0EE410A94ED031AB1EE411AB0EE410AB5
:105150009FED192AF3EE0A1A9FED181A00F008FFC6
:1051600084ED300A94ED071AF0EE410A94ED031A2B
:10517000B1EE411AB0EE410A9FED0F2AF3EE0A1A82
:105180009FED0E1A00F098FF84ED310A22460721A8
:10519000062001F04DFC94ED290AD4ED080AB4EE86
:1051A000E00AF1EE10FA03DB9FED030A84ED290A11
:1051B000BDEC028B10BD000000000000713D5641A7
:1051C00010B51448006800F0020010B112A002F0FF
:1051D000F1F91048006800F0804088B10D48C01E09
:1051E000007808B1FEF724F80A48001F007808B1DB
:1051F00001F006F80748801E008808B104F0E6FBBD
:105200000448006800F0004010B109A002F0D2F993
:1052100010BD00002CED00E06661696C65642076CD
:105220006563746F722066657463680A000000002D
:105230006465627567206576656E740A000000001B
:1052400010B502A002F0B6F9002010BD48656C6CE4
:105250006F2052542D546872656164210A00000069
:10526000044901EB0011D1F80710034A42F820105D
:105270007047000024060020F40700203D4909681B
:1052800002292ED13C490968491C3B4A1160642817
:1052900022D11146096802291ED138490968491CE2
:1052A000364A116036490968491C354A116035494A
:1052B0000968491E334A116033490968491E324A58
:1052C000116032490968491C304A116000212A4A9C
:1052D0001160284A116004E00021274A1160254A24
:1052E000116024490968012913D123490968491C1F
:1052F000214A1160632807D111460968012903D1A9
:1053000002211C4A116004E000211B4A1160194A65
:105310001160612805D11749096811B90121154AA1
:105320001160442818D115490968491E134A1160B3
:1053300013490968491E124A116012490968491C3B
:10534000104A116010490968491C0F4A11600F4941
:105350000968491E0D4A11604F280AD10021074AE9
:105360001160074A1160074A1160074A1160074A35
:105370001160704714000020180000201C0000205D
:105380002000002024000020280000202C00002005
:1053900010B50DA002F00EF9104804680DE00222CD
:1053A0000FA12068FBF722F900B905E00DA0D4E9B0
:1053B000001202F0FFF800BF0C340E48006884426F
:1053C000EDD3002010BD00002D2D46756E6374696D
:1053D0006F6E204C6973743A0A000000B801002017
:1053E0005F5F0000252D313673202D2D2025730A97
:1053F00000000000BC0100202DE9F04F8FB0002715
:105400000FF2C009082302AA04210AA800F096F8A6
:105410004FF008084A4641462CA002F0CBF840461F
:1054200001F08EF932A002F0C5F800BF0AA9384693
:1054300000F099F8074600253BE002A850F8250047
:10544000A0F10C06FAF734FF8346307A20F0800092
:105450009DF83010884203D05846FAF72DFF27E018
:105460005846FAF729FF344604F1140002F0EFF829
:10547000A8B904F1140002F0F2F88246E06923466C
:1054800008224146CDE9000A21A002F093F804F178
:10549000140004F083F915A002F08CF807E0E0692D
:1054A00023460822414600901FA002F083F800BF67
:1054B0006D1C0E98A842C0DC002FB7D100200FB0A1
:1054C000BDE8F08F6576656E74000000252D2A2EEC
:1054D00073202020202020736574202020207375E5
:1054E0007370656E64207468726561640A00000000
:1054F00020202D2D2D2D2D2D2D2D2D2D202D2D2D03
:105500002D2D2D2D2D2D2D2D2D2D2D0A00000000A2
:10551000252D2A2E2A732020307825303878202512
:105520003033643A00000000252D2A2E2A732020F3
:1055300030782530387820300A0000002DE9F04717
:1055400004460D4616461F46284602F045FB814696
:1055500009F10408C4F8008025726660E760002045
:105560002061BDE8F0872DE9F84F07460C464FF063
:10557000000A00202061E06808B1207A10B90020FC
:10558000BDE8F88FD4F800801FB945464FF0010AF6
:1055900000E03D46FAF78CFE0090BAF1000F0ED104
:1055A000A5F10C0B9BF8080020F08000217A8842BE
:1055B00004D00098FAF780FE0020E1E700BF002643
:1055C000D4F804900BE02D68454501D1002507E093
:1055D000761C49F8045BE068B04200D100E0F2E7D5
:1055E00000BF0098FAF768FE26612846C8E7000069
:1055F0002DE9F04F91B000270FF2D409082304AA37
:1056000005210CA8FFF79AFF4FF008084A464146CB
:1056100031A001F0CFFF404601F092F837A001F031
:10562000C9FF00BF0CA93846FFF79DFF07460025BC
:1056300045E004A850F82500A0F10C06FAF738FE62
:105640008346307A20F080009DF83810884203D0DD
:105650005846FAF731FE31E05846FAF72DFE344647
:1056600004F1140001F0F3FFB8B904F1140001F0E3
:10567000F6FF8246208C618C23460822CDE9010A80
:105680000091414624A001F095FF04F1140004F0BC
:1056900085F827A001F08EFF0FE004F1140001F05F
:1056A000DEFF8246208C618C23460822CDE9010A68
:1056B000009141461FA001F07DFF00BF6D1C1098B6
:1056C000A842B6DC002FADD1002011B0BDE8F08FAC
:1056D0006D61696C626F7800252D2A2E7320656ECE
:1056E0007472792073697A652073757370656E645E
:1056F000207468726561640A00000000202D2D2D61
:105700002D20202D2D2D2D202D2D2D2D2D2D2D2DF0
:105710002D2D2D2D2D2D0A00252D2A2E2A732025E5
:105720003034642020253034642025643A000000A1
:105730000A000000252D2A2E2A73202530346420EB
:1057400020253034642025640A00000010B5084884
:10575000016808A001F02EFF0B4801680BA001F0C2
:1057600029FF0F4801680FA001F024FF10BD0000C1
:10577000EC000020746F74616C206D656D6F727940
:105780003A2025640A000000F0000020757365646B
:10579000206D656D6F7279203A2025640A00000043
:1057A000F40000206D6178696D756D20616C6C6F1F
:1057B0006361746564206D656D6F72793A2025644C
:1057C0000A0000002DE9F04F8FB000270FF2CC093E
:1057D000082302AA06210AA8FFF7B0FE4FF0080826
:1057E0004A46414630A001F0E5FE404600F0A8FFE1
:1057F00034A001F0DFFE00BF0AA93846FFF7B3FE70
:105800000746002541E002A850F82500A0F10C064B
:10581000FAF74EFD8346307A20F080009DF8301074
:10582000884203D05846FAF747FD2DE05846FAF76C
:1058300043FD344604F1140001F009FFA8B904F156
:10584000140001F00CFF8246A08C2346082241463A
:10585000CDE9000A21A001F0ADFE04F1140003F02F
:105860009DFF23A001F0A6FE0DE004F1140001F05D
:10587000F6FE8246A08C234608224146CDE9000A66
:105880001CA001F097FE00BF6D1C0E98A842BADC68
:10589000002FB1D100200FB0BDE8F08F6D7367719C
:1058A0007565756500000000252D2A2E7320656E34
:1058B0007472792073757370656E64207468726594
:1058C00061640A00202D2D2D2D20202D2D2D2D2D14
:1058D0002D2D2D2D2D2D2D2D2D0A0000252D2A2E7F
:1058E0002A732025303464202025643A000000000B
:1058F0000A000000252D2A2E2A732025303464202A
:105900002025640A000000002DE9F04F91B0002727
:105910000FF29C09082304AA03210CA8FFF70EFE2E
:105920004FF008084A46414623A001F043FE404696
:1059300000F006FF29A001F03DFE00BF0CA938468B
:10594000FFF711FE0746002629E004A850F82600BC
:10595000A0F10C04FAF7ACFC8346207A20F080001A
:105960009DF83810884203D05846FAF7A5FC15E098
:105970005846FAF7A1FC254605F1140001F06FFE28
:105980008246E87F0822296A2B46CDE9020ACDE942
:105990000021414619A001F00DFE00BF761C1098B1
:1059A000B042D2DC002FC9D1002011B0BDE8F08F89
:1059B0006D75746578000000252D2A2E7320202037
:1059C0006F776E65722020686F6C642073757370DA
:1059D000656E64207468726561640A00202D2D2D47
:1059E0002D2D2D2D2D202D2D2D2D202D2D2D2D2D01
:1059F0002D2D2D2D2D2D2D2D2D0A0000252D2A2E5E
:105A00002A7320252D382E2A732025303464202532
:105A1000640A00002DE9F04F8FB000270FF2CC0987
:105A2000082302AA02210AA8FFF788FD4FF0080800
:105A30004A46414630A001F0BDFD404600F080FEE0
:105A400034A001F0B7FD00BF0AA93846FFF78BFD6F
:105A50000746002541E002A850F82500A0F10C06F9
:105A6000FAF726FC8346307A20F080009DF830104B
:105A7000884203D05846FAF71FFC2DE05846FAF743
:105A80001BFC344604F1140001F0E1FDA8B904F157
:105A9000140001F0E4FD8246A08B23460822414613
:105AA000CDE9000A21A001F085FD04F1140003F006
:105AB00075FE17A001F07EFD0DE004F1140001F069
:105AC000CEFD8246A08B234608224146CDE9000A3E
:105AD0001AA001F06FFD00BF6D1C0E98A842BADC41
